:10000000000002200900000005480649002288423D
:1000100002DA02600430FAE700F006F8FEE70000BA
:10002000000000200E00002000F0EBF800F0DCF8EB
:1000300000F003F800F075F8FAE7F0B57D480468C1
:100040007D4805680126B60334420CBF0026012610
:100050007A4807780670012F04D1002E02D10120C2
:1000600000F020F80126F60534420CBF00260126D8
:10007000734807780670012F04D1002E02D10020AA
:1000800000F010F80126360135420CBF002601268B
:100090006C4807780670012F03D1002E01D100F0C3
:1000A00024F8F0BD30B5684C2578082D03DA67498F
:1000B00048550135257030BD70B5634C2478042C4B
:1000C00011DC002C0FD0002500266049A64204DA7E
:1000D0008A5D6D0015430136F8E70822121B954032
:1000E0002543280070BDFF2070BD70B5FFF7E4FF09
:1000F0000400FF2C0ED0564D564E0023B54209DAAF
:100100002A78A24202D001350133F7E70133524881
:10011000037002E0FF23504803704B480021017038
:1001200070BDF0B54D4804784B480578002D0DD0D2
:10013000FF2D07D0013D05225543494E761936194A
:10014000377804E0474E3619377800E00027002C56
:1001500008D0012C09D0022C0AD0032C0BD04FF46C
:1001600000200AE04FF4001007E04FF4800004E0A4
:100170004FF4004001E04FF08070010001221201B5
:10018000174200D002E04FF0805211430122D2000A
:10019000174200D002E04FF40062114301229200A6
:1001A000174200D002E04FF00042114301221742F3
:1001B00000D002E04FF0804211432B480160012241
:1001C0005200174201D0002101E04FF020012748E2
:1001D000016040F2DC52013AFDD10134052C00DB14
:1001E00000241E480470F0BD012114480170144819
:1001F0000170144801700021174801701748017000
:1002000070471B484FF0010141658165C16301667C
:10021000C1640167C162C16781674FF00C018163EE
:10022000C16514484FF0010141614FF000010161C7
:100230007047000010050050100800500900002011
:100240000A0000200B000020080000200000002011
:1002500078020000920200000C0000200D00002037
:10026000940200001603000004050050040800502A
:1002700000070050000A00504284A4830124C304F4
:100280000274A344C282E364D443038123146394BD
:10029000B4C400000E111F11111E111E111E0F10EB
:1002A00010100F1E1111111E1F101E101F1F101EE7
:1002B00010100F1013110F11111F11111F0404043E
:1002C0001F070202120C11121C1211101010101F25
:1002D000111B15111111191513110E1111110E1EEB
:1002E000111E10100E1111120D1E111E12110F10E1
:1002F0000E011E1F04040404111111110E1111111D
:100300000A041111151B11110A040A11110A04041F
:0B031000041F0204081F110A040A1158
:00000001FF
